{
  "contractName": "Faucet",
  "abi": [
    {
      "inputs": [],
      "name": "maxFundos",
      "outputs": [
        {
          "internalType": "uint256",
          "name": "",
          "type": "uint256"
        }
      ],
      "stateMutability": "view",
      "type": "function",
      "constant": true
    },
    {
      "inputs": [],
      "name": "name",
      "outputs": [
        {
          "internalType": "string",
          "name": "",
          "type": "string"
        }
      ],
      "stateMutability": "view",
      "type": "function",
      "constant": true
    },
    {
      "inputs": [],
      "name": "numerodeFinanciadores",
      "outputs": [
        {
          "internalType": "uint256",
          "name": "",
          "type": "uint256"
        }
      ],
      "stateMutability": "view",
      "type": "function",
      "constant": true
    },
    {
      "inputs": [],
      "name": "owner",
      "outputs": [
        {
          "internalType": "address",
          "name": "",
          "type": "address"
        }
      ],
      "stateMutability": "view",
      "type": "function",
      "constant": true
    },
    {
      "stateMutability": "payable",
      "type": "receive",
      "payable": true
    },
    {
      "inputs": [],
      "name": "emitLog",
      "outputs": [
        {
          "internalType": "bytes32",
          "name": "",
          "type": "bytes32"
        }
      ],
      "stateMutability": "pure",
      "type": "function",
      "constant": true
    },
    {
      "inputs": [],
      "name": "addFundos",
      "outputs": [],
      "stateMutability": "payable",
      "type": "function",
      "payable": true
    },
    {
      "inputs": [
        {
          "internalType": "uint256",
          "name": "amount",
          "type": "uint256"
        }
      ],
      "name": "withdraw",
      "outputs": [],
      "stateMutability": "nonpayable",
      "type": "function"
    },
    {
      "inputs": [],
      "name": "getTodosPatrocinadores",
      "outputs": [
        {
          "internalType": "address[]",
          "name": "",
          "type": "address[]"
        }
      ],
      "stateMutability": "view",
      "type": "function",
      "constant": true
    },
    {
      "inputs": [
        {
          "internalType": "uint8",
          "name": "index",
          "type": "uint8"
        }
      ],
      "name": "getFundadoresAtIndex",
      "outputs": [
        {
          "internalType": "address",
          "name": "",
          "type": "address"
        }
      ],
      "stateMutability": "view",
      "type": "function",
      "constant": true
    },
    {
      "inputs": [
        {
          "internalType": "address",
          "name": "newOwner",
          "type": "address"
        }
      ],
      "name": "transferOwnership",
      "outputs": [],
      "stateMutability": "nonpayable",
      "type": "function"
    }
  ],
  "bytecode": "0x60c0604052600660808190527f466175636574000000000000000000000000000000000000000000000000000060a090815261003e916001919061006f565b50670de0b6b3a764000060035534801561005757600080fd5b5060008054600160a060020a0319163317905561015c565b82805461007b90610108565b90600052602060002090601f01602090048101928261009d57600085556100e3565b82601f106100b657805160ff19168380011785556100e3565b828001600101855582156100e3579182015b828111156100e35782518255916020019190600101906100c8565b506100ef9291506100f3565b5090565b5b808211156100ef57600081556001016100f4565b60028104600182168061011c57607f821691505b60208210811415610156577f4e487b7100000000000000000000000000000000000000000000000000000000600052602260045260246000fd5b50919050565b6106fb8061016b6000396000f3fe6080604052600436106100b2576000357c010000000000000000000000000000000000000000000000000000000090048063d3418aa911610076578063d3418aa914610189578063d59473e014610191578063edf2179f146101a7578063f2fde38b146101e0578063f42c13bf1461020057600080fd5b806306fdde03146100be5780632e1a7d4d146100e95780638da5cb5b1461010b578063acdf3fa414610143578063b0ed0ccb1461016757600080fd5b366100b957005b600080fd5b3480156100ca57600080fd5b506100d3610233565b6040516100e09190610610565b60405180910390f35b3480156100f557600080fd5b5061010961010436600461058a565b6102c1565b005b34801561011757600080fd5b5060005461012b90600160a060020a031681565b604051600160a060020a0390911681526020016100e0565b34801561014f57600080fd5b5061015960025481565b6040519081526020016100e0565b34801561017357600080fd5b5061017c610364565b6040516100e091906105c3565b61010961043d565b34801561019d57600080fd5b5061015960035481565b3480156101b357600080fd5b5061012b6101c23660046105a2565b60ff16600090815260056020526040902054600160a060020a031690565b3480156101ec57600080fd5b506101096101fb36600461055c565b6104b9565b34801561020c57600080fd5b507f48656c6c6f000000000000000000000000000000000000000000000000000000610159565b6001805461024090610663565b80601f016020809104026020016040519081016040528092919081815260200182805461026c90610663565b80156102b95780601f1061028e576101008083540402835291602001916102b9565b820191906000526020600020905b81548152906001019060200180831161029c57829003601f168201915b505050505081565b806003548110610332576040517f08c379a000000000000000000000000000000000000000000000000000000000815260206004820152601d60248201527f5175616e74696461646520657863656469646120616f206c696d69746500000060448201526064015b60405180910390fd5b604051339083156108fc029084906000818181858888f1935050505015801561035f573d6000803e3d6000fd5b505050565b6060600060025467ffffffffffffffff8111156103945760e060020a634e487b7102600052604160045260246000fd5b6040519080825280602002602001820160405280156103bd578160200160208202803683370190505b50905060005b600254811015610437576000818152600560205260409020548251600160a060020a039091169083908390811061040d5760e060020a634e487b7102600052603260045260246000fd5b600160a060020a03909216602092830291909101909101528061042f8161069b565b9150506103c3565b50919050565b3360008181526004602052604090205460ff166104b65760028054600091826104658361069b565b90915550600160a060020a0383166000908152600460209081526040808320805460ff191660011790559282526005905220805473ffffffffffffffffffffffffffffffffffffffff191633179055505b50565b600054600160a060020a0316331461052d576040517f08c379a000000000000000000000000000000000000000000000000000000000815260206004820152601c60248201527f536f6d656e7465206f20646f6e6f20706f6465206578656375746172000000006044820152606401610329565b6000805473ffffffffffffffffffffffffffffffffffffffff1916600160a060020a0392909216919091179055565b60006020828403121561056d578081fd5b8135600160a060020a0381168114610583578182fd5b9392505050565b60006020828403121561059b578081fd5b5035919050565b6000602082840312156105b3578081fd5b813560ff81168114610583578182fd5b6020808252825182820181905260009190848201906040850190845b81811015610604578351600160a060020a0316835292840192918401916001016105df565b50909695505050505050565b6000602080835283518082850152825b8181101561063c57858101830151858201604001528201610620565b8181111561064d5783604083870101525b50601f01601f1916929092016040019392505050565b60028104600182168061067757607f821691505b602082108114156104375760e060020a634e487b7102600052602260045260246000fd5b60006000198214156106be5760e060020a634e487b710281526011600452602481fd5b506001019056fea2646970667358221220a9e9f5e3a1f81f27009387f321a93868b6109acd23869eb2150447d635334a9964736f6c63430008040033",
  "immutableReferences": {},
  "source": "// SPDX-License-Identifier: MIT\npragma solidity >=0.4.22 <0.9.0;\nimport \"./Owned.sol\";\nimport \"./Logger.sol\";\nimport \"./IFaucet.sol\";\n\n  /*\n  ------------------- note ---------------------------------------------------\n    * Funo para Buscar todos endereos financiadores.\n    * note: Como iremos buscar valores de um estado e retornar esse valor declaramos a funo como view\n    * note: @return address[] - Como estamos buscando valores de um array  necessario adicionar memory ou callback \n\n  /** \n      *@dev As diferenas ente public e external so: \n    * public - Funo publica visivel - que pode ser acessada por outras funes internas.\n    * external - Funo publica externa - que nao podem ser acessadas por outras funes internas. \n    * Boa pratica  analisar se a funcao publica ser usada por outras funes internas. \n    */\n\n    /**\n    *@dev Faa os testes no Truffle console\n    * const contract = await Faucet.deployed()\n    * contract.addFundos({ from: accounts[1], value: \"10000\"})\n    * contract.getFundadoresAtIndex(1)\n    */\n\n    /**\n      * @dev funes sem implementaces para reutilizacao podem ser declaradas como virtual\n      * e funes que reescrevem a mesma funo sem implementao podem ser declarada como override\n      *note: funes que tem apenas um retorno de valor sem nenhum estado devem ser declaradas como pure.\n     */\n\n     /** \n      *note: Para criar uma funo em um contract e chamar essa mesma funo em \n      um outro contrato especifico as funes devem ser declaradas com internal ou public na\n       no contrato A (onde esta implementada) e override no contrato B (onde sera reutilizado) \n      */\n\n\ncontract Faucet is Owned, Logger, IFaucet {\n   \n    //Array de endereos\n\n    string public name = \"Faucet\";\n\n    uint public numerodeFinanciadores;\n    uint256 public maxFundos = 1*10**18;\n   \n\n    mapping(address => bool) private patrocinadores; \n    mapping(uint => address) private lutPatrocinadores; \n\n    /** \n      *@dev modificadores so usados para reaproveitar condies de um contrato. (require) ou ifs\n     */\n    modifier limitwithdraw(uint256 amount ){\n        require(amount < maxFundos, \"Quantidade excedida ao limite\");\n        //underscore  usado para no ser acessado diretamente\n        _;\n    }\n\n    \n    receive() external payable {}\n    /*\n      * Funo para adicionar Fundos.\n      * @param financiadores - Adiciona o endereo que adicionou fundos para um array de endereo denominado financiadores.\n    /*/\n\n    function emitLog() public override pure returns(bytes32){\n      return \"Hello\";\n    }\n\n    /** \n      * @dev funes sobrescritas das interfaces necessitam ser override e implementar a funo\n     */\n    function addFundos() override external payable {\n      address patrocinador = msg.sender;\n      if(!patrocinadores[patrocinador]){\n        uint index = numerodeFinanciadores++;\n        patrocinadores[patrocinador] = true;\n        lutPatrocinadores[index] = msg.sender;\n      }\n    }\n\n    function withdraw(uint amount) override external limitwithdraw(amount)  {\n      payable(msg.sender).transfer(amount);\n    }\n    /**\n      * @dev funo para retornar todos patrocinadores adicionados na funcao addFundos()\n     */\n    function getTodosPatrocinadores() external view returns(address [] memory) {\n   \n       address [] memory _patrocinadores = new address [](numerodeFinanciadores);\n\n       for (uint i=0; i<numerodeFinanciadores; i++) {\n          _patrocinadores[i] = lutPatrocinadores[i];\n       }\n\n       return _patrocinadores;\n    }\n\n    function getFundadoresAtIndex(uint8 index) external view returns(address) {\n      return lutPatrocinadores[index];\n    }\n\n    function transferOwnership(address newOwner) external onlyOwner {\n      owner = newOwner;\n    }\n\n    /**\n      @dev Diferecncias entre private e internal\n      private - Acessivel apenas no contrato \n      internal - So pode ser acessivel atraves de um contrato inteligente ou derivado de outros contratos inteligents\n\n      *note: PRIVATE => Rigoroso, apenas acessivel para variaveis e funcoes. \n     */\n}",
  "sourcePath": "/Users/nlwsoft/Documents/GitHub/introducao_ao_solidity/contracts/Faucet.sol",
  "compiler": {
    "name": "solc",
    "version": "0.8.4+commit.c7e474f2.Emscripten.clang"
  },
  "schemaVersion": "3.4.3",
  "updatedAt": "2022-01-16T14:09:10.776Z",
  "networkType": "ethereum",
  "devdoc": {
    "kind": "dev",
    "methods": {
      "addFundos()": {
        "details": "funes sobrescritas das interfaces necessitam ser override e implementar a funo"
      },
      "getTodosPatrocinadores()": {
        "details": "funo para retornar todos patrocinadores adicionados na funcao addFundos()"
      }
    },
    "version": 1
  },
  "userdoc": {
    "kind": "user",
    "methods": {},
    "notice": "note: Para criar uma funo em um contract e chamar essa mesma funo em  um outro contrato especifico as funes devem ser declaradas com internal ou public na no contrato A (onde esta implementada) e override no contrato B (onde sera reutilizado) ",
    "version": 1
  }
}