{
  "contractName": "Faucet",
  "abi": [
    {
      "inputs": [],
      "name": "founds",
      "outputs": [
        {
          "internalType": "uint256",
          "name": "",
          "type": "uint256"
        }
      ],
      "stateMutability": "view",
      "type": "function",
      "constant": true
    },
    {
      "inputs": [],
      "name": "numerodeFinanciadores",
      "outputs": [
        {
          "internalType": "uint256",
          "name": "",
          "type": "uint256"
        }
      ],
      "stateMutability": "view",
      "type": "function",
      "constant": true
    },
    {
      "stateMutability": "payable",
      "type": "receive",
      "payable": true
    },
    {
      "inputs": [],
      "name": "addFundos",
      "outputs": [],
      "stateMutability": "payable",
      "type": "function",
      "payable": true
    },
    {
      "inputs": [],
      "name": "getTodosPatrocinadores",
      "outputs": [
        {
          "internalType": "address[]",
          "name": "",
          "type": "address[]"
        }
      ],
      "stateMutability": "view",
      "type": "function",
      "constant": true
    },
    {
      "inputs": [
        {
          "internalType": "uint8",
          "name": "index",
          "type": "uint8"
        }
      ],
      "name": "getFundadoresAtIndex",
      "outputs": [
        {
          "internalType": "address",
          "name": "",
          "type": "address"
        }
      ],
      "stateMutability": "view",
      "type": "function",
      "constant": true
    }
  ],
  "bytecode": "0x60806040526103e860025534801561001657600080fd5b506103a3806100266000396000f3fe60806040526004361061006a577c010000000000000000000000000000000000000000000000000000000060003504639e6ef5918114610076578063acdf3fa41461009f578063b0ed0ccb146100b5578063d3418aa9146100d7578063edf2179f146100e157600080fd5b3661007157005b600080fd5b34801561008257600080fd5b5061008c60025481565b6040519081526020015b60405180910390f35b3480156100ab57600080fd5b5061008c60005481565b3480156100c157600080fd5b506100ca61014c565b60405161009691906102d3565b6100df61026a565b005b3480156100ed57600080fd5b506101276100fc3660046102ab565b60ff1660009081526001602052604090205473ffffffffffffffffffffffffffffffffffffffff1690565b60405173ffffffffffffffffffffffffffffffffffffffff9091168152602001610096565b60606000805467ffffffffffffffff811115610191577f4e487b7100000000000000000000000000000000000000000000000000000000600052604160045260246000fd5b6040519080825280602002602001820160405280156101ba578160200160208202803683370190505b50905060005b60005481101561026457600081815260016020526040902054825173ffffffffffffffffffffffffffffffffffffffff9091169083908390811061022d577f4e487b7100000000000000000000000000000000000000000000000000000000600052603260045260246000fd5b73ffffffffffffffffffffffffffffffffffffffff909216602092830291909101909101528061025c8161032d565b9150506101c0565b50919050565b6000805481806102798361032d565b909155506000908152600160205260409020805473ffffffffffffffffffffffffffffffffffffffff19163317905550565b6000602082840312156102bc578081fd5b813560ff811681146102cc578182fd5b9392505050565b6020808252825182820181905260009190848201906040850190845b8181101561032157835173ffffffffffffffffffffffffffffffffffffffff16835292840192918401916001016102ef565b50909695505050505050565b6000600019821415610366577f4e487b710000000000000000000000000000000000000000000000000000000081526011600452602481fd5b506001019056fea26469706673582212208993e3d0c7916007cf5ce2fff8b1b90a387aea8cb8384eb788110e028db5590964736f6c63430008040033",
  "immutableReferences": {},
  "source": "// SPDX-License-Identifier: MIT\npragma solidity >=0.4.22 <0.9.0;\n\n  /*\n  ------------------- note ---------------------------------------------------\n    * Funo para Buscar todos endereos financiadores.\n    * note: Como iremos buscar valores de um estado e retornar esse valor declaramos a funo como view\n    * note: @return address[] - Como estamos buscando valores de um array  necessario adicionar memory ou callback \n\n  \n  /** \n      *@dev As diferenas ente public e external so: \n    * public - Funo publica visivel - que pode ser acessada por outras funes internas.\n    * external - Funo publica externa - que nao podem ser acessadas por outras funes internas. \n    * Boa pratica  analisar se a funcao publica ser usada por outras funes internas. \n    */\n\n    /**\n    *@dev Faa os testes no Truffle console\n    * const contract = await Faucet.deployed()\n    * contract.addFundos({ from: accounts[1], value: \"10000\"})\n    * contract.getFundadoresAtIndex(1)\n    */\n\ncontract Faucet {\n   \n\n    //Array de endereos\n\n    uint public numerodeFinanciadores;\n    mapping(uint => address) private patrocinadores; \n\n    uint256 public founds = 1000;\n\n    receive() external payable {}\n    /*\n      * Funo para adicionar Fundos.\n      * @param financiadores - Adiciona o endereo que adicionou fundos para um array de endereo denominado financiadores.\n    /*/\n    function addFundos() external payable {\n      uint index  = numerodeFinanciadores++;\n      patrocinadores[index] = msg.sender;\n    }\n\n    /**\n      * @dev funo para retornar todos patrocinadores adicionados na funcao addFundos()\n     */\n    function getTodosPatrocinadores() external view returns(address [] memory) {\n      /**@dev esse modelo de declarao abaixo esta sendo bastante utilizado atualmente para reduzir custos de gas */\n       address [] memory _patrocinadores = new address [](numerodeFinanciadores);\n          /** Iterao percorrendo numeroFinanciadores e relacionando ao array patrocinadores[]  */\n       for (uint i=0; i<numerodeFinanciadores; i++) {\n          _patrocinadores[i] = patrocinadores[i];\n       }\n       return _patrocinadores;\n    }\n\n    function getFundadoresAtIndex(uint8 index) external view returns(address) {\n      return patrocinadores[index];\n    }\n\n    /**\n      @dev Diferecncias entre private e internal\n      private - Acessivel apenas no contrato \n      internal - So pode ser acessivel atraves de um contrato inteligente ou derivado de outros contratos inteligents\n\n      * note: PRIVATE => Rigoroso, apenas acessivel para variaveis e funcoes. \n      \n     */\n}",
  "sourcePath": "/Users/nlwsoft/Desktop/Blockchain Market/contracts/Faucet.sol",
  "compiler": {
    "name": "solc",
    "version": "0.8.4+commit.c7e474f2.Emscripten.clang"
  },
  "schemaVersion": "3.4.3",
  "updatedAt": "2022-01-15T21:30:57.999Z",
  "networkType": "ethereum",
  "devdoc": {
    "details": "Faa os testes no Truffle console const contract = await Faucet.deployed() contract.addFundos({ from: accounts[1], value: \"10000\"}) contract.getFundadoresAtIndex(1)",
    "kind": "dev",
    "methods": {
      "getTodosPatrocinadores()": {
        "details": "funo para retornar todos patrocinadores adicionados na funcao addFundos()"
      }
    },
    "version": 1
  },
  "userdoc": {
    "kind": "user",
    "methods": {},
    "version": 1
  }
}