{
  "contractName": "Faucet",
  "abi": [
    {
      "inputs": [],
      "name": "maxFundos",
      "outputs": [
        {
          "internalType": "uint256",
          "name": "",
          "type": "uint256"
        }
      ],
      "stateMutability": "view",
      "type": "function",
      "constant": true
    },
    {
      "inputs": [],
      "name": "numerodeFinanciadores",
      "outputs": [
        {
          "internalType": "uint256",
          "name": "",
          "type": "uint256"
        }
      ],
      "stateMutability": "view",
      "type": "function",
      "constant": true
    },
    {
      "inputs": [],
      "name": "owner",
      "outputs": [
        {
          "internalType": "address",
          "name": "",
          "type": "address"
        }
      ],
      "stateMutability": "view",
      "type": "function",
      "constant": true
    },
    {
      "stateMutability": "payable",
      "type": "receive",
      "payable": true
    },
    {
      "inputs": [],
      "name": "emitLog",
      "outputs": [
        {
          "internalType": "bytes32",
          "name": "",
          "type": "bytes32"
        }
      ],
      "stateMutability": "pure",
      "type": "function",
      "constant": true
    },
    {
      "inputs": [],
      "name": "addFundos",
      "outputs": [],
      "stateMutability": "payable",
      "type": "function",
      "payable": true
    },
    {
      "inputs": [
        {
          "internalType": "uint256",
          "name": "amount",
          "type": "uint256"
        }
      ],
      "name": "withdraw",
      "outputs": [],
      "stateMutability": "nonpayable",
      "type": "function"
    },
    {
      "inputs": [],
      "name": "getTodosPatrocinadores",
      "outputs": [
        {
          "internalType": "address[]",
          "name": "",
          "type": "address[]"
        }
      ],
      "stateMutability": "view",
      "type": "function",
      "constant": true
    },
    {
      "inputs": [
        {
          "internalType": "uint8",
          "name": "index",
          "type": "uint8"
        }
      ],
      "name": "getFundadoresAtIndex",
      "outputs": [
        {
          "internalType": "address",
          "name": "",
          "type": "address"
        }
      ],
      "stateMutability": "view",
      "type": "function",
      "constant": true
    },
    {
      "inputs": [
        {
          "internalType": "address",
          "name": "newOwner",
          "type": "address"
        }
      ],
      "name": "transferOwnership",
      "outputs": [],
      "stateMutability": "nonpayable",
      "type": "function"
    }
  ],
  "bytecode": "0x6080604052670de0b6b3a764000060025534801561001c57600080fd5b5060008054600160a060020a031916331790556105f38061003e6000396000f3fe6080604052600436106100a7576000357c010000000000000000000000000000000000000000000000000000000090048063d3418aa911610076578063d3418aa914610158578063d59473e014610160578063edf2179f14610176578063f2fde38b146101af578063f42c13bf146101cf57600080fd5b80632e1a7d4d146100b35780638da5cb5b146100d5578063acdf3fa414610112578063b0ed0ccb1461013657600080fd5b366100ae57005b600080fd5b3480156100bf57600080fd5b506100d36100ce3660046104f7565b610202565b005b3480156100e157600080fd5b506000546100f590600160a060020a031681565b604051600160a060020a0390911681526020015b60405180910390f35b34801561011e57600080fd5b5061012860015481565b604051908152602001610109565b34801561014257600080fd5b5061014b6102a5565b6040516101099190610530565b6100d36103aa565b34801561016c57600080fd5b5061012860025481565b34801561018257600080fd5b506100f561019136600461050f565b60ff16600090815260046020526040902054600160a060020a031690565b3480156101bb57600080fd5b506100d36101ca3660046104c9565b610426565b3480156101db57600080fd5b507f48656c6c6f000000000000000000000000000000000000000000000000000000610128565b806002548110610273576040517f08c379a000000000000000000000000000000000000000000000000000000000815260206004820152601d60248201527f5175616e74696461646520657863656469646120616f206c696d69746500000060448201526064015b60405180910390fd5b604051339083156108fc029084906000818181858888f193505050501580156102a0573d6000803e3d6000fd5b505050565b6060600060015467ffffffffffffffff8111156102eb577f4e487b7100000000000000000000000000000000000000000000000000000000600052604160045260246000fd5b604051908082528060200260200182016040528015610314578160200160208202803683370190505b50905060005b6001548110156103a4576000818152600460205260409020548251600160a060020a039091169083908390811061037a577f4e487b7100000000000000000000000000000000000000000000000000000000600052603260045260246000fd5b600160a060020a03909216602092830291909101909101528061039c8161057d565b91505061031a565b50919050565b3360008181526003602052604090205460ff166104235760018054600091826103d28361057d565b90915550600160a060020a0383166000908152600360209081526040808320805460ff191660011790559282526004905220805473ffffffffffffffffffffffffffffffffffffffff191633179055505b50565b600054600160a060020a0316331461049a576040517f08c379a000000000000000000000000000000000000000000000000000000000815260206004820152601c60248201527f536f6d656e7465206f20646f6e6f20706f646520657865637574617200000000604482015260640161026a565b6000805473ffffffffffffffffffffffffffffffffffffffff1916600160a060020a0392909216919091179055565b6000602082840312156104da578081fd5b8135600160a060020a03811681146104f0578182fd5b9392505050565b600060208284031215610508578081fd5b5035919050565b600060208284031215610520578081fd5b813560ff811681146104f0578182fd5b6020808252825182820181905260009190848201906040850190845b81811015610571578351600160a060020a03168352928401929184019160010161054c565b50909695505050505050565b60006000198214156105b6577f4e487b710000000000000000000000000000000000000000000000000000000081526011600452602481fd5b506001019056fea2646970667358221220b8d8d287f58ab5f822b4bf98c8253b8dd5f4d107546e416e2321933f1fe2a36764736f6c63430008040033",
  "immutableReferences": {},
  "source": "// SPDX-License-Identifier: MIT\npragma solidity >=0.4.22 <0.9.0;\nimport \"./Owned.sol\";\nimport \"./Logger.sol\";\nimport \"./IFaucet.sol\";\n\n  /*\n  ------------------- note ---------------------------------------------------\n    * Funo para Buscar todos endereos financiadores.\n    * note: Como iremos buscar valores de um estado e retornar esse valor declaramos a funo como view\n    * note: @return address[] - Como estamos buscando valores de um array  necessario adicionar memory ou callback \n\n  \n  /** \n      *@dev As diferenas ente public e external so: \n    * public - Funo publica visivel - que pode ser acessada por outras funes internas.\n    * external - Funo publica externa - que nao podem ser acessadas por outras funes internas. \n    * Boa pratica  analisar se a funcao publica ser usada por outras funes internas. \n    */\n\n    /**\n    *@dev Faa os testes no Truffle console\n    * const contract = await Faucet.deployed()\n    * contract.addFundos({ from: accounts[1], value: \"10000\"})\n    * contract.getFundadoresAtIndex(1)\n    */\n\n    /**\n      * @dev funes sem implementaces para reutilizacao podem ser declaradas como virtual\n      * e funes que reescrevem a mesma funo sem implementao podem ser declarada como override\n      *note: funes que tem apenas um retorno de valor sem nenhum estado devem ser declaradas como pure.\n     */\n\n\ncontract Faucet is Owned, Logger, IFaucet {\n   \n    //Array de endereos\n\n    uint public numerodeFinanciadores;\n    uint256 public maxFundos = 1*10**18;\n   \n\n    mapping(address => bool) private patrocinadores; \n    mapping(uint => address) private lutPatrocinadores; \n\n    /** \n      *@dev modificadores so usados para reaproveitar condies de um contrato. (require) ou ifs\n     */\n    modifier limitwithdraw(uint256 amount ){\n        require(amount < maxFundos, \"Quantidade excedida ao limite\");\n        //underscore  usado para no ser acessado diretamente\n        _;\n    }\n\n    \n    receive() external payable {}\n    /*\n      * Funo para adicionar Fundos.\n      * @param financiadores - Adiciona o endereo que adicionou fundos para um array de endereo denominado financiadores.\n    /*/\n\n    function emitLog() public override pure returns(bytes32){\n      return \"Hello\";\n    }\n\n    /** \n      * @dev funes sobrescritas das interfaces necessitam ser override e implementar a funo\n     */\n    function addFundos() override external payable {\n      address patrocinador = msg.sender;\n      if(!patrocinadores[patrocinador]){\n        uint index = numerodeFinanciadores++;\n        patrocinadores[patrocinador] = true;\n        lutPatrocinadores[index] = msg.sender;\n      }\n    }\n\n    function withdraw(uint amount) override external limitwithdraw(amount)  {\n      payable(msg.sender).transfer(amount);\n    }\n    /**\n      * @dev funo para retornar todos patrocinadores adicionados na funcao addFundos()\n     */\n    function getTodosPatrocinadores() external view returns(address [] memory) {\n   \n       address [] memory _patrocinadores = new address [](numerodeFinanciadores);\n\n       for (uint i=0; i<numerodeFinanciadores; i++) {\n          _patrocinadores[i] = lutPatrocinadores[i];\n       }\n\n       return _patrocinadores;\n    }\n\n    function getFundadoresAtIndex(uint8 index) external view returns(address) {\n      return lutPatrocinadores[index];\n    }\n\n    function transferOwnership(address newOwner) external onlyOwner {\n      owner = newOwner;\n    }\n\n    /**\n      @dev Diferecncias entre private e internal\n      private - Acessivel apenas no contrato \n      internal - So pode ser acessivel atraves de um contrato inteligente ou derivado de outros contratos inteligents\n\n      *note: PRIVATE => Rigoroso, apenas acessivel para variaveis e funcoes. \n     */\n}",
  "sourcePath": "/Users/nlwsoft/Documents/GitHub/introducao_ao_solidity/contracts/Faucet.sol",
  "compiler": {
    "name": "solc",
    "version": "0.8.4+commit.c7e474f2.Emscripten.clang"
  },
  "schemaVersion": "3.4.3",
  "updatedAt": "2022-01-16T01:41:20.836Z",
  "networkType": "ethereum",
  "devdoc": {
    "details": "funes sem implementaces para reutilizacao podem ser declaradas como virtual e funes que reescrevem a mesma funo sem implementao podem ser declarada como override note: funes que tem apenas um retorno de valor sem nenhum estado devem ser declaradas como pure.",
    "kind": "dev",
    "methods": {
      "addFundos()": {
        "details": "funes sobrescritas das interfaces necessitam ser override e implementar a funo"
      },
      "getTodosPatrocinadores()": {
        "details": "funo para retornar todos patrocinadores adicionados na funcao addFundos()"
      }
    },
    "version": 1
  },
  "userdoc": {
    "kind": "user",
    "methods": {},
    "version": 1
  }
}