{
  "contractName": "Faucet",
  "abi": [
    {
      "inputs": [],
      "name": "maxFundos",
      "outputs": [
        {
          "internalType": "uint256",
          "name": "",
          "type": "uint256"
        }
      ],
      "stateMutability": "view",
      "type": "function",
      "constant": true
    },
    {
      "inputs": [],
      "name": "numerodeFinanciadores",
      "outputs": [
        {
          "internalType": "uint256",
          "name": "",
          "type": "uint256"
        }
      ],
      "stateMutability": "view",
      "type": "function",
      "constant": true
    },
    {
      "stateMutability": "payable",
      "type": "receive",
      "payable": true
    },
    {
      "inputs": [],
      "name": "addFundos",
      "outputs": [],
      "stateMutability": "payable",
      "type": "function",
      "payable": true
    },
    {
      "inputs": [
        {
          "internalType": "uint256",
          "name": "amount",
          "type": "uint256"
        }
      ],
      "name": "withdraw",
      "outputs": [],
      "stateMutability": "nonpayable",
      "type": "function"
    },
    {
      "inputs": [],
      "name": "getTodosPatrocinadores",
      "outputs": [
        {
          "internalType": "address[]",
          "name": "",
          "type": "address[]"
        }
      ],
      "stateMutability": "view",
      "type": "function",
      "constant": true
    },
    {
      "inputs": [
        {
          "internalType": "uint8",
          "name": "index",
          "type": "uint8"
        }
      ],
      "name": "getFundadoresAtIndex",
      "outputs": [
        {
          "internalType": "address",
          "name": "",
          "type": "address"
        }
      ],
      "stateMutability": "view",
      "type": "function",
      "constant": true
    }
  ],
  "bytecode": "0x6080604052670de0b6b3a764000060015534801561001c57600080fd5b506104ce8061002c6000396000f3fe608060405260043610610075577c010000000000000000000000000000000000000000000000000000000060003504632e1a7d4d8114610081578063acdf3fa4146100a3578063b0ed0ccb146100cc578063d3418aa9146100ee578063d59473e0146100f6578063edf2179f1461010c57600080fd5b3661007c57005b600080fd5b34801561008d57600080fd5b506100a161009c3660046103be565b610177565b005b3480156100af57600080fd5b506100b960005481565b6040519081526020015b60405180910390f35b3480156100d857600080fd5b506100e1610219565b6040516100c391906103fe565b6100a1610337565b34801561010257600080fd5b506100b960015481565b34801561011857600080fd5b506101526101273660046103d6565b60ff1660009081526003602052604090205473ffffffffffffffffffffffffffffffffffffffff1690565b60405173ffffffffffffffffffffffffffffffffffffffff90911681526020016100c3565b8060015481106101e7576040517f08c379a000000000000000000000000000000000000000000000000000000000815260206004820152601d60248201527f5175616e74696461646520657863656469646120616f206c696d697465000000604482015260640160405180910390fd5b604051339083156108fc029084906000818181858888f19350505050158015610214573d6000803e3d6000fd5b505050565b60606000805467ffffffffffffffff81111561025e577f4e487b7100000000000000000000000000000000000000000000000000000000600052604160045260246000fd5b604051908082528060200260200182016040528015610287578160200160208202803683370190505b50905060005b60005481101561033157600081815260036020526040902054825173ffffffffffffffffffffffffffffffffffffffff909116908390839081106102fa577f4e487b7100000000000000000000000000000000000000000000000000000000600052603260045260246000fd5b73ffffffffffffffffffffffffffffffffffffffff909216602092830291909101909101528061032981610458565b91505061028d565b50919050565b3360008181526002602052604090205460ff166103bb5760008054818061035d83610458565b9091555073ffffffffffffffffffffffffffffffffffffffff83166000908152600260209081526040808320805460ff191660011790559282526003905220805473ffffffffffffffffffffffffffffffffffffffff191633179055505b50565b6000602082840312156103cf578081fd5b5035919050565b6000602082840312156103e7578081fd5b813560ff811681146103f7578182fd5b9392505050565b6020808252825182820181905260009190848201906040850190845b8181101561044c57835173ffffffffffffffffffffffffffffffffffffffff168352928401929184019160010161041a565b50909695505050505050565b6000600019821415610491577f4e487b710000000000000000000000000000000000000000000000000000000081526011600452602481fd5b506001019056fea2646970667358221220a66289736b5d84516372519ecd1c58db32ccaf1be8bc288c1eabef8615046ee364736f6c63430008040033",
  "immutableReferences": {},
  "source": "// SPDX-License-Identifier: MIT\npragma solidity >=0.4.22 <0.9.0;\n\n  /*\n  ------------------- note ---------------------------------------------------\n    * Funo para Buscar todos endereos financiadores.\n    * note: Como iremos buscar valores de um estado e retornar esse valor declaramos a funo como view\n    * note: @return address[] - Como estamos buscando valores de um array  necessario adicionar memory ou callback \n\n  \n  /** \n      *@dev As diferenas ente public e external so: \n    * public - Funo publica visivel - que pode ser acessada por outras funes internas.\n    * external - Funo publica externa - que nao podem ser acessadas por outras funes internas. \n    * Boa pratica  analisar se a funcao publica ser usada por outras funes internas. \n    */\n\n    /**\n    *@dev Faa os testes no Truffle console\n    * const contract = await Faucet.deployed()\n    * contract.addFundos({ from: accounts[1], value: \"10000\"})\n    * contract.getFundadoresAtIndex(1)\n    */\n\ncontract Faucet {\n   \n\n    //Array de endereos\n\n    uint public numerodeFinanciadores;\n    uint256 public maxFundos = 1*10**18;\n\n    mapping(address => bool) private patrocinadores; \n    mapping(uint => address) private lutPatrocinadores; \n\n    /** \n      *@dev modificadores so usados para reaproveitar condies de um contrato. (require) ou ifs\n     */\n    modifier limitwithdraw(uint256 amount ){\n        require(amount < maxFundos, \"Quantidade excedida ao limite\");\n        //underscore  usado para no ser acessado diretamente\n        _;\n    }\n\n\n    receive() external payable {}\n    /*\n      * Funo para adicionar Fundos.\n      * @param financiadores - Adiciona o endereo que adicionou fundos para um array de endereo denominado financiadores.\n    /*/\n    function addFundos() external payable {\n      address patrocinador = msg.sender;\n      if(!patrocinadores[patrocinador]){\n        uint index = numerodeFinanciadores++;\n        patrocinadores[patrocinador] = true;\n        lutPatrocinadores[index] = msg.sender;\n      }\n    }\n\n    function withdraw(uint amount) external limitwithdraw(amount)  {\n     \n      payable(msg.sender).transfer(amount);\n    }\n    /**\n      * @dev funo para retornar todos patrocinadores adicionados na funcao addFundos()\n     */\n    function getTodosPatrocinadores() external view returns(address [] memory) {\n   \n       address [] memory _patrocinadores = new address [](numerodeFinanciadores);\n\n       for (uint i=0; i<numerodeFinanciadores; i++) {\n          _patrocinadores[i] = lutPatrocinadores[i];\n       }\n\n       return _patrocinadores;\n    }\n\n    function getFundadoresAtIndex(uint8 index) external view returns(address) {\n      return lutPatrocinadores[index];\n    }\n\n\n\n    /**\n      @dev Diferecncias entre private e internal\n      private - Acessivel apenas no contrato \n      internal - So pode ser acessivel atraves de um contrato inteligente ou derivado de outros contratos inteligents\n\n      *note: PRIVATE => Rigoroso, apenas acessivel para variaveis e funcoes. \n     */\n}",
  "sourcePath": "/Users/nlwsoft/Documents/GitHub/introducao_ao_solidity/contracts/Faucet.sol",
  "compiler": {
    "name": "solc",
    "version": "0.8.4+commit.c7e474f2.Emscripten.clang"
  },
  "schemaVersion": "3.4.3",
  "updatedAt": "2022-01-15T23:28:55.521Z",
  "networkType": "ethereum",
  "devdoc": {
    "details": "Faa os testes no Truffle console const contract = await Faucet.deployed() contract.addFundos({ from: accounts[1], value: \"10000\"}) contract.getFundadoresAtIndex(1)",
    "kind": "dev",
    "methods": {
      "getTodosPatrocinadores()": {
        "details": "funo para retornar todos patrocinadores adicionados na funcao addFundos()"
      }
    },
    "version": 1
  },
  "userdoc": {
    "kind": "user",
    "methods": {},
    "version": 1
  }
}