{
  "contractName": "MemoryTest",
  "abi": [
    {
      "inputs": [
        {
          "internalType": "uint256",
          "name": "testNum",
          "type": "uint256"
        }
      ],
      "name": "test",
      "outputs": [
        {
          "internalType": "uint256",
          "name": "",
          "type": "uint256"
        }
      ],
      "stateMutability": "pure",
      "type": "function"
    }
  ],
  "bytecode": "0x608060405234801561001057600080fd5b5060b68061001f6000396000f3fe6080604052348015600f57600080fd5b50600436106044577c0100000000000000000000000000000000000000000000000000000000600035046329e99f0781146049575b600080fd5b605760543660046069565b90565b60405190815260200160405180910390f35b6000602082840312156079578081fd5b503591905056fea26469706673582212203abb404586815fd6d3e6dd612b3568e4ceed7765b0b515d091ba5b2e5e707ac264736f6c63430008040033",
  "immutableReferences": {},
  "source": "// SPDX-License-Identifier: MIT\npragma solidity >=0.4.22 <0.9.0;\n\ncontract MemoryTest {\n\n    function test(uint testNum) external pure returns(uint){\n        \n        assembly {\n          let _num := 4\n          let _fmp := mload(0x40)  \n        }\n\n        return testNum;\n    }\n}",
  "sourcePath": "/Users/nlwsoft/Documents/GitHub/introducao_ao_solidity/contracts/MemoryTest.sol",
  "compiler": {
    "name": "solc",
    "version": "0.8.4+commit.c7e474f2.Emscripten.clang"
  },
  "schemaVersion": "3.4.3",
  "updatedAt": "2022-01-15T21:41:55.108Z",
  "devdoc": {
    "kind": "dev",
    "methods": {},
    "version": 1
  },
  "userdoc": {
    "kind": "user",
    "methods": {},
    "version": 1
  }
}