{
  "contractName": "Owned",
  "abi": [
    {
      "inputs": [],
      "stateMutability": "nonpayable",
      "type": "constructor"
    },
    {
      "inputs": [],
      "name": "owner",
      "outputs": [
        {
          "internalType": "address",
          "name": "",
          "type": "address"
        }
      ],
      "stateMutability": "view",
      "type": "function"
    }
  ],
  "bytecode": "0x608060405234801561001057600080fd5b5060008054600160a060020a0319163317905560c7806100316000396000f3fe6080604052348015600f57600080fd5b50600436106044577c010000000000000000000000000000000000000000000000000000000060003504638da5cb5b81146049575b600080fd5b60005460689073ffffffffffffffffffffffffffffffffffffffff1681565b60405173ffffffffffffffffffffffffffffffffffffffff909116815260200160405180910390f3fea2646970667358221220c92dd9ad20553e3d17bca764683bcec8c84705b1539bb88cfdd3f7ed470b518d64736f6c63430008040033",
  "immutableReferences": {},
  "source": "// SPDX-License-Identifier: MIT\npragma solidity >=0.4.22 <0.9.0;\n\ncontract Owned{\n    address public owner;\n\n    modifier onlyOwner(){\n        require(\n            msg.sender == owner, \n            \"Somente o dono pode executar\"\n            );\n        _;\n    }\n\n    constructor() {\n        owner = msg.sender;\n    }\n\n}\n\n\n\n\n\n",
  "sourcePath": "/Users/nlwsoft/Documents/GitHub/introducao_ao_solidity/contracts/Owned.sol",
  "compiler": {
    "name": "solc",
    "version": "0.8.4+commit.c7e474f2.Emscripten.clang"
  },
  "schemaVersion": "3.4.3",
  "updatedAt": "2022-01-15T23:52:16.565Z",
  "devdoc": {
    "kind": "dev",
    "methods": {},
    "version": 1
  },
  "userdoc": {
    "kind": "user",
    "methods": {},
    "version": 1
  }
}